:020000040800F2
:1000000000000220CDB70008F9200008FD200008FC
:100010000121000805210008092100080000000056
:10002000000000000000000000000000C192000875
:100030000D2100080000000051930008B59300084E
:100040001DB800081DB800081DB800081DB800083C
:100050001DB800081DB80008112100081DB80008CF
:100060001DB8000819210008212100081DB800084A
:100070001DB800081DB800081DB800081DB800080C
:100080001DB800081DB800081DB800081DB80008FC
:10009000292100081DB800081DB8000835210008F6
:1000A0003D2100081DB800081DB800081DB8000853
:1000B0001DB800081DB800081DB800081DB80008CC
:1000C0001DB800081DB800081DB800081DB80008BC
:1000D0001DB800081DB800081DB800081DB80008AC
:1000E0001DB800081DB800081DB800081DB800089C
:1000F0001DB800081DB800081DB800083DB700086D
:100100001DB800081DB800081DB800081DB800087B
:100110001DB800081DB800081DB800081DB800086B
:100120001DB80008592100081DB800081DB80008B6
:100130001DB800081DB800081DB800081DB800084B
:10014000652100081DB800081DB8000871210008CD
:100150001DB800087D210008892100081DB800088D
:100160001DB800081DB800081DB800081DB800081B
:100170001DB800081DB800081DB8000800000000E8
:080180001DB800081DB80008BD
:1001900010B5054C237833B9044B13B10448AFF3C1
:1001A00000800123237010BD3009002000000000F2
:1001B000A843010808B5034B1BB103490348AFF33B
:1001C000008008BD0000000034090020A843010899
:1001D00010F8012B11F8013B012A28BF9A42F7D0F1
:1001E000D01A7047034613F8012B002AFBD1181AC6
:1001F000013870470000000000000000000000000F
:1002000001F0FF01102A2BDB10F0070F08D010F8C7
:10021000013B013A8B422DD010F0070F42B3F6D1CB
:10022000F0B441EA012141EA014122F007047FF0E4
:1002300000070023F0E80256083C85EA010586EA3B
:10024000010685FA47F5A3FA87F586FA47F6A5FA77
:1002500087F68EB9EED1F0BC01F0FF0102F0070283
:1002600032B110F8013B013A83EA010313B1F8D12E
:100270000020704701387047002D06BF354603380F
:10028000073815F0010F07D1013015F4807F02BF48
:10029000013015F4C03F0130F0BC0138704700BF99
:1002A00081F0004102E000BF83F0004330B54FEA27
:1002B00041044FEA430594EA050F08BF90EA020F94
:1002C0001FBF54EA000C55EA020C7FEA645C7FEA27
:1002D000655C00F0E2804FEA5454D4EB5555B8BF4A
:1002E0006D420CDD2C4480EA020281EA030382EABB
:1002F000000083EA010180EA020281EA0303362D4D
:1003000088BF30BD11F0004F4FEA01314FF4801C1F
:100310004CEA113102D0404261EB410113F0004F31
:100320004FEA03334CEA133302D0524263EB4303E8
:1003300094EA050F00F0A780A4F10104D5F1200E86
:100340000DDB02FA0EFC22FA05F2801841F10001E1
:1003500003FA0EF2801843FA05F359410EE0A5F1B5
:1003600020050EF1200E012A03FA0EFC28BF4CF0E6
:10037000020C43FA05F3C01851EBE37101F000459C
:1003800007D54FF0000EDCF1000C7EEB00006EEBA9
:100390000101B1F5801F1BD3B1F5001F0CD3490833
:1003A0005FEA30004FEA3C0C04F101044FEA44528A
:1003B00012F5800F80F09A80BCF1004F08BF5FEA11
:1003C000500C50F1000041EB045141EA050130BDF1
:1003D0005FEA4C0C404141EB0101013C28BFB1F503
:1003E000801FE9D291F0000F04BF01460020B1FA4E
:1003F00081F308BF2033A3F10B03B3F120020CDA21
:100400000C3208DD02F1140CC2F10C0201FA0CF0FE
:1004100021FA02F10CE002F11402D8BFC2F1200C63
:1004200001FA02F120FA0CFCDCBF41EA0C01904019
:10043000E41AA2BF01EB0451294330BD6FEA040462
:100440001F3C1CDA0C340EDC04F11404C4F120024D
:1004500020FA04F001FA02F340EA030021FA04F35F
:1004600045EA030130BDC4F10C04C4F1200220FAB6
:1004700002F001FA04F340EA0300294630BD21FAF4
:1004800004F0294630BD94F0000F83F4801306BFBA
:1004900081F480110134013D4EE77FEA645C18BFAE
:1004A0007FEA655C29D094EA050F08BF90EA020F45
:1004B00005D054EA000C04BF1946104630BD91EA3D
:1004C000030F1EBF0021002030BD5FEA545C05D140
:1004D0004000494128BF41F0004130BD14F580047F
:1004E0003CBF01F5801130BD01F0004545F0FE41F3
:1004F00041F470014FF0000030BD7FEA645C1ABF28
:10050000194610467FEA655C1CBF0B46024650EA5E
:10051000013406BF52EA033591EA030F41F400218A
:1005200030BD00BF90F0000F04BF0021704730B510
:100530004FF4806404F132044FF000054FF00001E5
:1005400050E700BF90F0000F04BF0021704730B5A6
:100550004FF4806404F1320410F0004548BF40427B
:100560004FF000013EE700BF42004FEAE2014FEAD0
:1005700031014FEA02701FBF12F07F4393F07F4FAB
:1005800081F06051704732F07F4208BF704793F0AE
:100590007F4F04BF41F40021704730B54FF46074C1
:1005A00001F0004521F000411CE700BF50EA0102C4
:1005B00008BF704730B54FF000050AE050EA01026D
:1005C00008BF704730B511F0004502D5404261EBDD
:1005D00041014FF4806404F132045FEA915C3FF41E
:1005E000D8AE4FF003025FEADC0C18BF03325FEABB
:1005F000DC0C18BF033202EBDC02C2F1200300FA6C
:1006000003FC20FA02F001FA03FE40EA0E0021FA90
:1006100002F11444BDE600BF70B54FF0FF0C4CF47E
:10062000E06C1CEA11541DBF1CEA135594EA0C0F30
:1006300095EA0C0F00F0DEF82C4481EA030621EA6B
:100640004C5123EA4C5350EA013518BF52EA0335A6
:1006500041F4801143F4801338D0A0FB02CE4FF058
:100660000005E1FB02E506F00042E0FB03E54FF088
:100670000006E1FB03569CF0000F18BF4EF0010E80
:10068000A4F1FF04B6F5007F64F5407404D25FEA7C
:100690004E0E6D4146EB060642EAC62141EA55512F
:1006A0004FEAC52040EA5E504FEACE2EB4F1FD0C71
:1006B00088BFBCF5E06F1ED8BEF1004F08BF5FEAEF
:1006C000500E50F1000041EB045170BD06F00046A1
:1006D00046EA010140EA020081EA0301B4EB5C044E
:1006E000C2BFD4EB0C0541EA045170BD41F4801146
:1006F0004FF0000E013C00F3AB8014F1360FDEBF6B
:10070000002001F0004170BDC4F10004203C35DA46
:100710000C341BDC04F11404C4F1200500FA05F3C9
:1007200020FA04F001FA05F240EA020001F000426A
:1007300021F0004110EBD37021FA04F642EB0601E0
:100740005EEA430E08BF20EAD37070BDC4F10C040A
:10075000C4F1200500FA04F320FA05F001FA04F2CE
:1007600040EA020001F0004110EBD37041F10001BA
:100770005EEA430E08BF20EAD37070BDC4F12005C5
:1007800000FA05F24EEA020E20FA04F301FA05F22D
:1007900043EA020321FA04F001F0004121FA04F2D5
:1007A00020EA020000EBD3705EEA430E08BF20EAA5
:1007B000D37070BD94F0000F0FD101F000464000DF
:1007C00041EB010111F4801F08BF013CF7D041EA61
:1007D000060195F0000F18BF704703F00046520065
:1007E00043EB030313F4801F08BF013DF7D043EA36
:1007F0000603704794EA0C0F0CEA135518BF95EAEC
:100800000C0F0CD050EA410618BF52EA4306D1D172
:1008100081EA030101F000414FF0000070BD50EA91
:10082000410606BF1046194652EA430619D094EA1B
:100830000C0F02D150EA013613D195EA0C0F05D105
:1008400052EA03361CBF104619460AD181EA030159
:1008500001F0004141F0FE4141F470014FF0000011
:1008600070BD41F0FE4141F4780170BD70B54FF0AC
:10087000FF0C4CF4E06C1CEA11541DBF1CEA13552C
:1008800094EA0C0F95EA0C0F00F0A7F8A4EB05040E
:1008900081EA030E52EA03354FEA013100F0888005
:1008A0004FEA03334FF0805545EA131343EA1263CE
:1008B0004FEA022245EA111545EA10654FEA002683
:1008C0000EF000419D4208BF964244F1FD0404F53C
:1008D000407402D25B084FEA3202B61A65EB030598
:1008E0005B084FEA32024FF480104FF4002CB6EB55
:1008F000020E75EB030E22BFB61A754640EA0C00D5
:100900005B084FEA3202B6EB020E75EB030E22BF14
:10091000B61A754640EA5C005B084FEA3202B6EB55
:10092000020E75EB030E22BFB61A754640EA9C0014
:100930005B084FEA3202B6EB020E75EB030E22BFE4
:10094000B61A754640EADC0055EA060E18D04FEAA2
:10095000051545EA16754FEA06164FEAC30343EA42
:1009600052734FEAC2025FEA1C1CC0D111F4801F0F
:100970000BD141EA00014FF000004FF0004CB6E708
:1009800011F4801F04BF01430020B4F1FD0C88BFA7
:10099000BCF5E06F3FF6AFAEB5EB030C04BFB6EBB2
:1009A000020C5FEA500C50F1000041EB045170BDA5
:1009B0000EF0004E4EEA113114EB5C04C2BFD4EBD2
:1009C0000C0541EA045170BD41F480114FF0000E56
:1009D000013C90E645EA060E8DE60CEA135594EAD2
:1009E0000C0F08BF95EA0C0F3FF43BAF94EA0C0FD5
:1009F0000AD150EA01347FF434AF95EA0C0F7FF44A
:100A000025AF104619462CE795EA0C0F06D152EA9D
:100A100003353FF4FDAE1046194622E750EA410681
:100A200018BF52EA43067FF4C5AE50EA41047FF492
:100A30000DAF52EA43057FF4EBAE12E74FF0FF3CF7
:100A400006E000BF4FF0010C02E000BF4FF0010CC8
:100A50004DF804CD4FEA410C7FEA6C5C4FEA430C41
:100A600018BF7FEA6C5C1BD001B050EA410C0CBF90
:100A700052EA430C91EA030F02BF90EA020F0020F2
:100A8000704710F1000F91EA030F58BF994208BF59
:100A900090422CBFD8176FEAE37040F00100704716
:100AA0004FEA410C7FEA6C5C02D150EA013C07D16D
:100AB0004FEA430C7FEA6C5CD6D152EA033CD3D0B8
:100AC0005DF8040B704700BF8446104662468C46B2
:100AD0001946634600E000BF01B5FFF7B7FF0028E5
:100AE00048BF10F1000F01BD4DF808EDFFF7F4FF0E
:100AF0000CBF012000205DF808FB00BF4DF808ED99
:100B0000FFF7EAFF34BF012000205DF808FB00BFBB
:100B10004DF808EDFFF7E0FF94BF012000205DF8DD
:100B200008FB00BF4DF808EDFFF7CEFF94BF012092
:100B300000205DF808FB00BF4DF808EDFFF7C4FF8B
:100B400034BF012000205DF808FB00BF4FEA410CD4
:100B50007FEA6C5C02D150EA013C0AD14FEA430CB7
:100B60007FEA6C5C02D152EA033C02D14FF00000F4
:100B700070474FF0010070474FEA410212F5001232
:100B800015D211D56FF47873B3EB625212D94FEAD4
:100B9000C12343F0004343EA505311F0004F23FABE
:100BA00002F018BF404270474FF00000704750EA13
:100BB000013005D111F0004008BF6FF000407047D0
:100BC0004FF00000704700BF7BB972B90029BEBF6B
:100BD00000204FF0004106E008BF00281CBF6FF066
:100BE00000414FF0FF3000F0BFB9ADF1080C6DE9E6
:100BF00004CE002909DB002B1ADB00F04DF8DDF8EC
:100C000004E0DDE9022304B07047404261EB41019A
:100C1000002B1BDB00F040F8DDF804E0DDE90223E7
:100C200004B0404261EB4101524263EB4303704721
:100C3000524263EB430300F02FF8DDF804E0DDE9F6
:100C4000022304B0404261EB41017047524263EB22
:100C5000430300F021F8DDF804E0DDE9022304B0ED
:100C6000524263EB4303704753B94AB9002908BFA6
:100C700000281CBF4FF0FF314FF0FF3000F074B977
:100C8000ADF1080C6DE904CE00F006F8DDF804E0E3
:100C9000DDE9022304B070472DE9F047089D0446C2
:100CA0008E46002B4DD18A42944669D9B2FA82F21F
:100CB00052B101FA02F3C2F1200120FA01F10CFA5B
:100CC00002FC41EA030E94404FEA1C48210CBEFB93
:100CD000F8F61FFA8CF708FB16E341EA034306FB1C
:100CE00007F199420AD91CEB030306F1FF3080F0AB
:100CF0001F81994240F21C81023E63445B1AA4B2F8
:100D0000B3FBF8F008FB103344EA034400FB07F799
:100D1000A7420AD91CEB040400F1FF3380F00A81DA
:100D2000A74240F207816444023840EA0640E41BCF
:100D300000261DB1D4400023C5E900433146BDE87B
:100D4000F0878B4209D9002D00F0EF800026C5E91D
:100D5000000130463146BDE8F087B3FA83F6002E35
:100D60004AD18B4202D3824200F2F980841A61EBAD
:100D7000030301209E46002DE0D0C5E9004EDDE7CB
:100D800002B9FFDEB2FA82F2002A40F09280A1EBB3
:100D90000C014FEA1C471FFA8CFE0126200CB1FB08
:100DA000F7F307FB131140EA01410EFB03F0884201
:100DB00008D91CEB010103F1FF3802D2884200F28E
:100DC000CB804346091AA4B2B1FBF7F007FB101120
:100DD00044EA01440EFB00FEA64508D91CEB0404BE
:100DE00000F1FF3102D2A64500F2BB800846A4EB19
:100DF0000E0440EA03409CE7C6F12007B34022FA04
:100E000007FC4CEA030C20FA07F401FA06F31C4332
:100E1000F9404FEA1C4900FA06F3B1FBF9F8200C3F
:100E20001FFA8CFE09FB181140EA014108FB0EF085
:100E3000884202FA06F20BD91CEB010108F1FF3AD5
:100E400080F08880884240F28580A8F102086144E1
:100E5000091AA4B2B1FBF9F009FB101144EA0141EF
:100E600000FB0EFE8E4508D91CEB010100F1FF349A
:100E70006CD28E456AD90238614440EA0840A0FB32
:100E80000294A1EB0E01A142C846A64656D353D008
:100E90005DB1B3EB080261EB0E0101FA07F722FA2C
:100EA00006F3F1401F43C5E9007100263146BDE855
:100EB000F087C2F12003D8400CFA02FC21FA03F3B8
:100EC000914001434FEA1C471FFA8CFEB3FBF7F039
:100ED00007FB10360B0C43EA064300FB0EF69E425E
:100EE00004FA02F408D91CEB030300F1FF382FD2F7
:100EF0009E422DD9023863449B1B89B2B3FBF7F69F
:100F000007FB163341EA034106FB0EF38B4208D977
:100F10001CEB010106F1FF3816D28B4214D9023EB8
:100F20006144C91A46EA004638E72E46284605E7D6
:100F30000646E3E61846F8E64B45A9D2B9EB0208A7
:100F400064EB0C0E0138A3E74646EAE7204694E737
:100F50004046D1E7D0467BE7023B614432E730466A
:100F600009E76444023842E7704700BF2DE9F041C9
:100F7000B2F1000882B00FDD094F0C4601EB080604
:100F800014F8015B01954FF6FF73012201A9384661
:100F900002F028FDA642F3D1404602B0BDE8F08140
:100FA000A40F002000B583B0014601AB0C22064817
:100FB0000AF094F80198A0F10C00B0FA80F0400912
:100FC00003B05DF804FB00BF0844010810B50146FA
:100FD0000C2210480AF0B2F800B910BD00F06AFC0B
:100FE000044638B10C4B1B7863B1282120460BF026
:100FF000A9FF00B9FEE7094B0948224628210BF05A
:10100000CDFFF7E70BF0AEFE0028EED00BF0CCFCE6
:10101000EBE700BF08440108F8600020184401080D
:101020003C0000202DE9F04F2DED048B89B008F035
:10103000F5FE80B100F03EFC044658B1714B1B78C0
:10104000002B00F0C981282120460BF07BFF0028EF
:1010500040F0BB81FEE708F099FB6B486B4900F05C
:101060002DFB6B48FFF79EFF002800F0AB8000F0DF
:1010700021FC044678B1634B1B78002B00F0BC8147
:10108000142120460BF05EFF28B1624B62482246D5
:1010900014210BF083FF614CDFF86C915C4D604EC6
:1010A0009FED608ADFF898A184ED098A4FF07E53A6
:1010B000236284ED0A8A84ED0B8A07F019FB5A4FEC
:1010C000DFED5A9A9FED5A9ADFED5A8A0490AAF101
:1010D00010080CF0DFFB5246C4E9000152495048A9
:1010E00008F0B8FE484894ED0C0AF0EE690A00F0EA
:1010F00003FBD9ED0E7AF5EEC07AF1EE10FA4FF05F
:10110000000004D4FCEEE77A17EE903A98B208F0AB
:101110004BFB96ED011A96ED007AD7ED012AD7ED3B
:10112000006AD6ED027A95ED006A61EE081AA7EE24
:10113000081A404622EE883AB0EE612AA7EE082A45
:10114000E6EE882A71EEC71AF0EE433A97ED027A7E
:10115000A7EE881AE7EE881AE6EE883A33EE663A8A
:1011600077EE827AE7EE082AA7EE083AD5ED016A13
:1011700095ED022AC4ED022A31EE461A71EEE61A06
:1011800037EEC22A77EE233AF0EE490AB0EE680A4B
:1011900084ED051AC4ED061A84ED072A84ED033A9E
:1011A000C4ED043A00F05AF91C4800F091FB05A97F
:1011B000404607AB06AA00F043FC052104A807F04F
:1011C000B5F986E700F076FB0E4B0393044670B149
:1011D0001B78002B00F00881142120460BF0B2FE92
:1011E00028B1154B1548224614210BF0D7FE0B4CA5
:1011F000DFF81490DFF830809FED0C8A04F13005A1
:1012000022E000BFF8600020AC0900204800002068
:1012100058090020604401082400002068090020CB
:10122000A0090020000000004C090020000020421E
:101230000AD7A33BCDCCCC3D884401081800002040
:101240009809002003F00EF90CF024FB2A4606460C
:101250000F4675484146C4E9006708F0FBFD734836
:1012600094ED0C0AF0EE480A00F046FAD9ED0E7A39
:10127000F5EEC07AF1EE10FA4FF0000004D4FCEE67
:10128000E77A17EE903A98B208F08EFAD4ED0C7A1D
:1012900077EEC87AB7EE007AF0EEE77AF4EEC77A26
:1012A000F1EE10FA4FF00500CCD500F003FB054637
:1012B000A0B1039B1B78002B00F0A68014212846C8
:1012C0000BF040FE50B1206BFFF74EF9584BCDE9C3
:1012D00000012A46574814210BF060FE564D524E2D
:1012E000DFF870A1DFF870819FED548A00232B6036
:1012F0006B60AB604FF496770CF0CCFA52468C469C
:10130000834641464848C4E900BC08F0A3FD47486D
:1013100094ED0C0AF0EE480A00F0EEF9D9ED0E7AE1
:10132000F5EEC07AF1EE10FA4FF0000004D4FCEEB6
:10133000E77A17EE903A98B208F036FAD5ED006ADF
:1013400095ED017AD5ED027A96ED005AD6ED015A67
:1013500096ED026A76EE856A37EE257A77EE867A22
:101360000520C5ED006A85ED017AC5ED027A03F02E
:1013700079F8013FC0D1D5ED006ADFED317A95ED06
:10138000017AD5ED025A86EEA76AC7EE276A85EE86
:10139000A77A85ED006AC5ED016A85ED027A00F055
:1013A00089FA074668B1039B1B78ABB31421384612
:1013B0000BF0C8FD28B1234B23483A4614210BF00B
:1013C000EDFD1D48FFF702FE6AE6204B204822464D
:1013D00028210BF0E3FD3DE60BF0C4FC00283FF4B0
:1013E00032AE0BF0E1FA2EE60BF0BCFC00283FF425
:1013F000F3AE0BF0D9FAEFE60BF0B4FC00283FF4A3
:101400003FAE0BF0D1FA3BE60BF0ACFC00283FF40A
:1014100055AF0BF0C9FA51E70BF0A4FC0028C5D07A
:101420000BF0C2FAC2E700BFA0090020AC090020FF
:10143000A04401080C0000205809002000002042B0
:1014400000009643BC44010800000020404401080D
:1014500030000020980900204C09002090ED017A0E
:10146000D0ED025A90ED004A90ED035A62EE476AC1
:1014700021EEE56A67EE217A2DED0A8B25EE828A50
:10148000E4EE216AA7EE416AA4EE018AE4EE027A54
:10149000E5EE016AA5EE426AA5EE618AE5EEC17A43
:1014A000F5EE402AF0EE661AF1EE10FAF6EE006A5A
:1014B00026EE261A28EE268A61EEA61A27EEA62A1E
:1014C00005D1B5EE403AF1EE10FA00F0EF8063EE90
:1014D000037A794BE2EEA27AF6EE008AE3EEA37A83
:1014E000B7EE089A17EE902AA3EB620267EEA86A9D
:1014F00007EE902A66EEA74AB0EE496AA7EEE46AC4
:1015000075EE059A67EE867AB0EE496A66EEA76ACE
:10151000F1EE004AA7EEE66A25EE05AA67EE867AA6
:1015200064EE04AA62EEA72A27EEC33A63EEA73A56
:1015300029EEE26A67EE247A6AEEA4AAA7EE8A6A26
:1015400074EE046AAAEE876A25EEA4BAA3EE266AB0
:1015500062EEA66A36EE676AEAEEA56AF2EE00AAC5
:10156000EBEE0A6A27EE2ACAE3EE296A27EE07AAFB
:1015700065EEAAAA76EECB6AACEE0A6AEAEE8A6A51
:1015800065EEA59A75EEA5BAEAEEA96AACEE296AEF
:10159000A3EEA76AF0EE667AE3EE8B7A64EE246A35
:1015A00062EEAB3AE6EEA93AE6EE8A3A2AEE24AAD1
:1015B00069EEA44A77EE079A69EEE26AE3EE293A09
:1015C000EAEE056AE4EE856A66EE064AE3EE2B6A09
:1015D000E3EEA34AF0EE662AE7EEA74AE6EEA64A55
:1015E000F0EE496A14EE902AA3EB620364EEA88A37
:1015F00004EE903A28EEA43AE4EEC36A64EEA64AFA
:1016000068EEA48AA4EEE89A64EE896A66EEE33A8C
:1016100026EEC66A66EEE77A66EEE26AA3EE801A06
:10162000A6EE008AE7EE801AA6EE802A224BA8EEEC
:10163000207ABDEC0A8BA1EE204A27EE076AF0EE75
:10164000657AE1EEA07AA4EE046AA2EE205AA7EE33
:10165000A76AF6EE005AA5EE056AF7EE086A16EEDE
:10166000102AA3EB620366EE255A06EE103A65EEE9
:10167000863AF0EE664AE6EE634A26EE246A65EEA6
:10168000865AE6EE656A66EE266A24EE264A27EE5C
:10169000267A67EEA67A25EE265A80ED004A80ED7E
:1016A000017AC0ED027A80ED035A7047F5EE403AB8
:1016B000F1EE10FABAD00AE7DF59375F10B58E465F
:1016C00084460446BEE80F000FC49EE80300DFED29
:1016D000097A84E80300CCED0E7ACCED0B7ACCEDE0
:1016E0000C7ACCED0D7ACCED087ACCED097ACCED04
:1016F0000A7A10BD00000000D0ED096A90ED087A6A
:101700000378C0ED060A70EEC07A80ED070AC0EDDE
:101710000A6A80ED097AC0ED087AABBBD0ED0C6A9D
:1017200090ED026AD0ED015AE7EE866A37EEC77A8D
:1017300090ED036AC0ED0C6A27EE067A90ED046A1C
:1017400080ED0D7A67EEA57AF4EEC66AF1EE10FA36
:10175000C0ED0B7A1DDD80ED0C6A77EE867A90ED98
:10176000050A77EE877AF4EEC07AF1EE10FAC0ED52
:101770000E7A06DCB1EE400AF4EEC07AF1EE10FA11
:1017800048D580ED0E0A7047012B0CD090ED0E0A63
:101790007047B1EE466AF4EEC66AF1EE10FADAD49A
:1017A000B0EE666AD9E7F0EE005AB0EE676AA7EECF
:1017B000656A90ED015AD0ED025A90ED050A37EEB8
:1017C000C77A76EE866A67EEA57A27EE057AD0EDBF
:1017D000035A80ED0B7A66EEA56A37EE276AD0EDE4
:1017E0000E5AC0ED0C7A36EE266AC0ED0D6A36EE62
:1017F000256AB4EEC06AF1EE10FA80ED0E6AC0DC24
:10180000B1EE400AB4EEC06AF1EE10FAB9D4B0EE0F
:10181000460A7047B0EE670A704700BF000000003C
:10182000F0B583B0002368460C46CDE9003307F0DD
:101830002DF8DDE9005673016A019B1B42EAD6626E
:1018400062EB0502520242EAD3525B029B1945EB5E
:1018500002029001990140EA9360CB1A60EB020208
:101860009E1945EB0205294610A3D3E90023304613
:10187000FFF7AAF90346C4E900010F46304629469E
:101880001D460AA3D3E90023FFF79EF9002AA260B0
:1018900007DA013D044967F10007C4E90057114424
:1018A000A160002003B0F0BD00CA9A3B00CA9A3B79
:1018B00000000000044B1B7803F0FF0013B1034845
:1018C0000CF004B8704700BFEC090020F0090020BC
:1018D0001D4B1B7803B97047D0B5D0E900678EB0B7
:1018E000044617A3D3E9002330463946FFF76CF9C5
:1018F000034601933046394611A3D3E90023FFF78D
:1019000063F9A3680393E368049323690593636908
:101910000693A3690793E3690893236B0D93236AE6
:1019200002920993A26A636A0A930B92E36A0748D8
:101930000C93002201A90BF0D3FF0EB0D0BD00BF65
:1019400000CA9A3B00000000EC090020E8090020D2
:1019500070B5384E2DED0A8BDFED37BA374D2B6859
:1019600055F8042F190E09EE901AC3F3074109EE3A
:10197000101AC3F3072108EE901A110E06EE101A82
:10198000C2F3074106EE901ADBB2C2F30721D2B2CE
:1019900007EE101A07EE902A05EE903AF8EEE99A53
:1019A000B8EEC99AF8EEE88AB8EEE58AB8EEC66AEB
:1019B000F8EEE66AB8EEC77AF8EEE77A36EE696ACC
:1019C00076EEC96A37EE687A77EEC87A86EE2BCA69
:1019D0004FF47A7486EEABBAC7EE2BAA87EEABAAA9
:1019E000013CA4B279EE8C9A38EE0A8AFCEEE97AD0
:1019F00039EE0B9A17EE900AFCEEC87A78EEAA8AB6
:101A000017EE902AFCEEC97A42EA006217EE903A8D
:101A1000FCEEE87A42EA034317EE900A43EA00201C
:101A200009F0BCFE012007F0DFFD002CD8D1AE424A
:101A300095D193E77800002000007A4460000020F0
:101A4000F8B5D0ED017A90ED027A90ED030AD0ED71
:101A5000006A2DED028BB6EE008AF0EE480AE7EE42
:101A6000E70A04460D4627EE000AE7EE470A164647
:101A70001F46A6EEA70A12F0B9F987ED000A94ED09
:101A8000000AD4ED027A94ED016AD4ED036A67EEA0
:101A9000C07AB8EE007AE6EE267A27EE870A12F0D0
:101AA00079F986ED000AD4ED027A94ED037A94ED8B
:101AB000000AD4ED016AF0EE480AE7EEE70A27EEE5
:101AC000000AE7EE470AA6EEA70A12F08FF9BDEC6E
:101AD000028B85ED000AF8BD054808B5054B03608B
:101AE00004F094F800B908BDBDE8084001F0B8BCA6
:101AF000F8090020003002400B4B02689A4200D0E7
:101B0000704782B000220192D3F8302842F480520C
:101B1000C3F8302803F500631B6B03F48053019373
:101B2000019B02B0704700BF0030024010B50C4866
:101B30000C4C00230322C0E900424FF410214FF463
:101B4000001283618383C0E90233C0E9041202F00A
:101B5000ADFA00B910BDBDE8104001F081BC00BF76
:101B6000040A00200064004010B50C480C4C00230F
:101B70000322C0E900424FF410214FF400128361A8
:101B80008383C0E90233C0E9041202F08FFA00B97E
:101B900010BDBDE8104001F063BC00BF2C0A00205E
:101BA0000068004030B502683F498BB000238A428C
:101BB000CDE90533CDE90733099337D03B498A4254
:101BC00001D00BB030BD3A4A0293116C394841F054
:101BD00080611164116C01F0806102910168029CC6
:101BE00001310129016054D0314B33480024049461
:101BF000196B41F0020119631B6B03F0020304939C
:101C000060220223CDE9052305A909230322CDE99A
:101C10000823049D03F0FCFD22460621402003F02A
:101C2000A9FF402003F0E4FF0BB030BD21490A6852
:101C30000132012A0A6020D01D4B20480024019463
:101C4000196B41F0080119631B6B03F008030322B1
:101C500001930223CDE9052305A90923CDE9082332
:101C6000019D03F0D5FD22460621142003F082FFDA
:101C7000142003F0BDFF0BB030BD0D4A0093136C70
:101C800043F000731364136C03F000730093009B24
:101C9000D2E70393136C43F000731364136C03F0E7
:101CA00000730393039B9FE70064004000680040BB
:101CB00000380240000A002000040240000C0240EC
:101CC00010B50F480F4C4FF48272C0E90042022158
:101CD00001220023C0E904124FF4007438210A22C3
:101CE000C0E90233C0E90641C0E90833C0E90A325D
:101CF00003F07EFB00B910BDBDE8104001F0B0BBA1
:101D0000140B00200030014010B50F480F4C4FF469
:101D10008272C0E90042022101220023C0E90412BC
:101D20004FF4007438210A22C0E90233C0E90641A9
:101D3000C0E90833C0E90A3203F05AFB00B910BD0C
:101D4000BDE8104001F08CBB6C0B00200038004057
:101D50002DE9F0470368564A8AB000249342CDE942
:101D60000544CDE90744099405D0524A934274D002
:101D70000AB0BDE8F087504B00945A6C4F4E42F4C5
:101D800080525A645A6C02F480520092009A019474
:101D90001A6B42F002021A631A6B02F002020192FD
:101DA000019A02941A6B42F001021A631B6B03F052
:101DB000010302934FF0020A4FF0010918234FF07C
:101DC0000308052705A905463D480593CDE906A961
:101DD000029BCDE9088703F01BFD8023394805935A
:101DE00005A9CDE906A9CDF82080099703F010FDDB
:101DF000354A74624FF0C063C6E9002330464FF4A1
:101E000080624FF44033C6E90244C6E90424C6E9BF
:101E10000644336203F0D6F8002846D12B4C2C49F7
:101E2000EE644FF0C062C4E900124FF480620023F8
:101E30004021226120464FF40032C4E90213C4E974
:101E40000533C4E90732B563636203F0BBF848BBEE
:101E5000AC64A5630AB0BDE8F087174B03941A6C15
:101E600042F480421A641A6C02F480420392039A8C
:101E700004941A6B022422431A631B6B4FF46040D4
:101E80000590234001200493CDE906400322052359
:101E90000B48049D05A9CDE9082303F0B9FC0AB05D
:101EA000BDE8F08701F0DCFAD2E701F0D9FAB5E736
:101EB000003001400038004000380240540A002041
:101EC000000402400000024040640240B40A0020C6
:101ED0005864024082B00E4B00220092596C41F4CB
:101EE00080415964586C00F4804000900098019241
:101EF000186C40F0805018641B6C03F08053019301
:101F0000019B0F216FF0010002B003F033BE00BF50
:101F10000038024010B50A480A4C00237C2140F6E4
:101F20007F42C0E90043C0E90212C0E90433836183
:101F300001F098FA00B910BDBDE8104001F090BA68
:101F4000C40B00200028004000B50E4A016885B08F
:101F500000239142CDE9013302D005B05DF804FBC6
:101F6000094B039302226846009202F08DFA30B9C1
:101F7000064B0122C3F83C2E05B05DF804FB01F0CE
:101F80006FFAF5E70028004000031E0000004742FA
:101F900010B51848184901604FF4003141601749E5
:101FA000002384B00122CDE90033CDE90233C0E93A
:101FB0000A1383600361037680F82030C360C26136
:101FC00080F83030426101F0D5FA60B91024012266
:101FD0000023084802936946CDE9004201F078FBEE
:101FE00020B904B010BD01F03BFAEFE701F038FA78
:101FF00004B010BDE40B0020002001400100000FE0
:1020000010B51848184901604FF400314160174974
:10201000002384B00122CDE90033CDE90233C0E9C9
:102020000A1383600361037680F82030C360C261C5
:1020300080F83030426101F09DFA60B90824012235
:102040000023084802936946CDE9004201F040FBB5
:1020500020B904B010BD01F003FAEFE701F000FA77
:1020600004B010BD2C0C0020002201400100000F24
:1020700030B502681C4989B000238A42CDE9033398
:10208000CDE90533079304D018498A420ED009B030
:1020900030BD174A0093536C43F480735364536C00
:1020A00003F480730093009B09B030BD104A019384
:1020B000516C4FF4806529435164506C2840019065
:1020C00001980293136B0B4843F020031363136BC7
:1020D000039503F02003029303A90324029B0494B5
:1020E00003F096FB09B030BD002001400022014002
:1020F0000038024000140240FEE700BFFEE700BFC8
:10210000FEE700BFFEE700BFFEE700BF704700BF6D
:10211000012003F0A3BC00BF082003F09FBC00BF58
:10212000102003F09BBC00BF014802F059B800BF6B
:10213000040A0020202003F091BC00BF08B5044829
:1021400002F036FDBDE80840024802F031BD00BF94
:10215000740C0020CC110020014802F0CBBF00BF5E
:10216000E40E0020014802F03BB800BF2C0A00201A
:10217000014803F05FBD00BFB05B0020014802F0E2
:10218000B9BF00BF440F0020014802F0B3BF00BF39
:10219000240E002000B583B0274B00220092186B5C
:1021A00040F480001863186B00F4800000900098E1
:1021B0000192186B40F4001018631B6B03F40013BA
:1021C000052101930C20019B03F0D4FC0C2003F0AB
:1021D0000FFD002205212F2003F0CCFC2F2003F05F
:1021E00007FD00220521392003F0C4FC392003F04B
:1021F000FFFC002205213A2003F0BCFC3A2003F04A
:10220000F7FC002205213B2003F0B4FC3B2003F047
:10221000EFFC00220521452003F0ACFC452003F033
:10222000E7FC00224620052103F0A4FC462003B071
:102230005DF804EB03F0DCBC0038024000B5384A1E
:102240000368934287B046D0364A934218D0364A44
:10225000934224D0354A934253D0354A93422DD0ED
:10226000344A934218D1344B002205925A6C42F4FE
:1022700000325A645B6C03F400330593059B0BE05A
:102280002D4B002201921A6C42F002021A641B6C60
:1022900003F002030193019B07B05DF804FB264B9A
:1022A000002202921A6C42F004021A641B6C03F0C2
:1022B00004030293029B07B05DF804FB1E4B00224F
:1022C00004925A6C42F002025A645B6C03F00203FF
:1022D0000493049BE0E7184B00220092596C41F0F4
:1022E000010159645B6C03F00103009318200F2176
:1022F000009B03F03FFC182007B05DF804EB03F0EF
:1023000077BC0D4B002203921A6C42F008021A644B
:102310001B6C03F008030393039B07B05DF804FBF9
:10232000000001400004004000080040000C004094
:10233000000401400044014000380240F0B5036849
:102340006C4A8DB000249342CDE90744CDE909449D
:102350000B943AD0684A934251D0684A934269D06C
:10236000674A934208D0674A93427ED0664A9342B6
:1023700000F0A7800DB0F0BD02F50B320394116B95
:1023800041F080011163126B02F0800203924FF45E
:10239000E052022307A9039807925C480122CDE985
:1023A0000832CDE90A3303F033FA594802F05EFAF5
:1023B0002146574802F042FB0421554802F03EFBFB
:1023C0000821534802F03AFBD4E7524B00941A6BB1
:1023D000514842F010021A631B6B03F010030122F4
:1023E000009302244FF4D44307A9CDE90734CDE983
:1023F0000924009D0B9203F00BFA0DB0F0BD02F51D
:102400000D320194116B454841F004011163126BC8
:1024100002F00402022301924FF48074012207A902
:10242000CDE90743CDE90923019D0B9303F0F0F9B2
:102430000DB0F0BD374B02941A6B42F008021A63DC
:102440001B6B02244FF4804003F008030293CDE994
:102450000704012203233248029D099207A9CDE90E
:102460000A3403F0D5F90DB0F0BD2A4B04941A6B71
:102470002C4842F480721A631A6B02F48072049240
:10248000049A05941A6B42F004021A631B6B03F062
:1024900004030225402705930126032407A9CDE95B
:1024A0000856CDE90A54059B079703F0B1F91B487C
:1024B000079707A9CDE90856CDE90A5403F0A8F912
:1024C00058E7144B06941A6B42F020021A631B6BF8
:1024D0000224402003F020030693CDE907040122E3
:1024E00003231148069D099207A9CDE90A4303F089
:1024F0008FF93FE700000140000400400008004061
:10250000000C00400004014000440140001C024057
:10251000940D0020003802400010024000080240E4
:10252000000C0240002002400014024010B50024BC
:1025300096B0202221460EA8CDE90444CDE90844F6
:10254000CDE90A44CDE90C44039401940794069420
:1025500002940EF04BFC3E483E4A8461A723C0E93A
:10256000002344F61F63C0E90243C0E9044402F0BB
:1025700035FC00284DD14FF480533548039303A90F
:1025800002F05EFA002860D1314802F055FC0028C4
:1025900058D100232E4801A9CDE9013303F06AFA8E
:1025A00000284CD160214FF47A730022CDE9071343
:1025B00027480D9207A9CDE90922CDE90B2202F0A7
:1025C0009BFC002838D12248042207A902F094FC81
:1025D00078BB1F48082207A902F08EFC30BB1C48BC
:1025E0000C2207A902F088FCE8B900234FF400523E
:1025F000174815930EA9CDE90E33CDE91033CDE977
:10260000123203F077FA38B91148FFF797FE16B087
:1026100010BD00F025FFAEE700F022FF0C48FFF7E9
:102620008DFE16B010BD00F01BFFDEE700F018FFB6
:10263000D5E700F015FFCCE700F012FFC3E700F08C
:102640000FFFAFE700F00CFFA3E700F009FF9BE7E7
:10265000740C00200000014010B52A488EB0002301
:10266000CDE90333CDE90533CDE90133CDE90733B6
:10267000CDE90933CDE90B33C0E901330D93036193
:102680008361214B036042F2CF03C36002F0A6FBDB
:1026900020BB4FF480531B48039303A902F0D0F9E9
:1026A00060BB184802F0C8FB28BB0023154801A9ED
:1026B000CDE9013303F0DEF9D0B9002360241148DD
:1026C0000993082207A9CDE907430B9302F014FCF4
:1026D00038B90C48FFF732FE0EB010BD00F0C0FE56
:1026E000D7E700F0BDFE0748FFF728FE0EB010BD8B
:1026F00000F0B6FEE1E700F0B3FED6E700F0B0FE72
:10270000CFE700BF040D00200004004010B52A48A8
:102710002A4A8EB00023CDE90333CDE90533CDE954
:102720000133CDE90733CDE90933CDE90B330D93FF
:10273000836003618361A723C0E900234FF6FF7321
:10274000C36002F04BFB20BB4FF480531A48039345
:1027500003A902F075F960BB174802F06DFB28BBB6
:102760000023154801A9CDE9013303F083F9D0B95D
:102770000023602410480993082207A9CDE90743E4
:102780000B9302F0B9FB38B90B48FFF7D7FD0EB039
:1027900010BD00F065FED7E700F062FE0648FFF7C7
:1027A000CDFD0EB010BD00F05BFEE1E700F058FE7D
:1027B000D6E700F055FECFE74C0D002000080040A2
:1027C00000B535488FB00023CDE90333CDE905339B
:1027D000CDE90133CDE90733CDE90933CDE90B3339
:1027E000C0E901330D93036183612C4B03604FF605
:1027F000FF73C36002F0F2FA002832D14FF4805325
:102800002548039303A902F01BF9002840D1224870
:1028100002F012FB002838D100231F4801A9CDE99E
:10282000013303F027F968BB002260231A4809929C
:1028300007A9CDE907320B9202F05EFBF8B9164802
:10284000042207A902F058FBB0B91348082207A9CF
:1028500002F052FB40B91048FFF770FD0FB05DF871
:1028600004FB00F0FDFDC9E700F0FAFD0A48FFF7A0
:1028700065FD0FB05DF804FB00F0F2FDE5E700F048
:10288000EFFDDCE700F0ECFDCEE700F0E9FDC3E78B
:1028900000F0E6FDBBE700BF940D0020000C0040F7
:1028A00010B5002496B0202221460EA8CDE904449C
:1028B000CDE90844CDE90A44CDE90C4403940194E0
:1028C0000794069402940EF091FA3548354A8461D3
:1028D000A723C0E9002344F61F63C0E90243C0E90F
:1028E000044402F07BFA002840D14FF480532C4876
:1028F000039303A902F0A4F800284DD1284802F060
:102900009BFA002845D10023254801A9CDE90133D0
:1029100003F0B0F8002839D160214FF47A73002217
:10292000CDE907131E480D9207A9CDE90922CDE98B
:102930000B2202F0E1FA30BB1948042207A902F089
:10294000DBFAE8B900234FF40052154815930EA99D
:10295000CDE90E33CDE91033CDE9123203F0CAF8D8
:1029600038B90F48FFF7EAFC16B010BD00F078FD4B
:10297000BBE700F075FD0A48FFF7E0FC16B010BD9C
:1029800000F06EFDDEE700F06BFDD5E700F068FDBE
:10299000C2E700F065FDB6E700F062FDAEE700BFFC
:1029A000DC0D00200004014000B51E481E4989B01E
:1029B000002341F28732CDE90133CDE90333CDE97C
:1029C0000533C0E90013C0E9023207930361836154
:1029D00002F004FAA0B9134802F02EFAB8B90022A6
:1029E00060231048039201A9CDE90132059202F05B
:1029F00083FA78B90B48FFF7A1FC09B05DF804FB36
:102A000000F02EFD074802F017FA0028E7D000F08A
:102A100027FDE4E700F024FD0248FFF78FFC09B032
:102A20005DF804FBBC0C00200044014010B50B48CD
:102A30000B4C00234FF4E1310C22C0E90041C0E906
:102A40000233C0E90432C0E9063300F09BFF00B94D
:102A500010BDBDE8104000F003BD00BFA40F002072
:102A60000010014010B50B480B4A0C4C0023C0E984
:102A700000424FF480610C22C0E90233C0E9041225
:102A8000C0E9063300F07EFF00B910BDBDE810407C
:102A900000F0E6BCE80F0020A086010000480040DE
:102AA00010B50B480B4C00234FF4E1310C22C0E968
:102AB0000041C0E90233C0E90432C0E9063300F046
:102AC00061FF00B910BDBDE8104000F0C9BC00BFF7
:102AD0002C100020001401402DE9F0430368904AB7
:102AE0008DB000249342CDE90744CDE90944054661
:102AF0000B9409D08B4A934260D08B4A934200F0EA
:102B0000A4800DB0BDE8F083884B00945A6C8848CF
:102B1000884E42F010025A645A6C02F01002009281
:102B2000009A01941A6B42F002021A631A6B02F0C7
:102B300002020192019A02941A6B42F001021A6396
:102B40001B6B03F0010302934FF002094FF00308DF
:102B50008023072707A90793CDF82090029BCDF883
:102B600028800B9702F054FE4FF4007372480793CD
:102B700007A9CDF82090CDF8288009940B9702F092
:102B800047FE6E4A74624FF00063C6E900234FF4BB
:102B900080634022336130464FF48033C6E902241B
:102BA000C6E90544C6E9074302F00CFA002840F0E4
:102BB000AB806E63B5630DB0BDE8F0835B4B0394EF
:102BC0001A6C5F485F4E42F480221A641A6C02F459
:102BD00080220392039A04941A6B42F004021A634F
:102BE0001B6B03F0040304934FF440630793049BAF
:102BF000022308934FF0030E072307A9CDE90AE348
:102C000002F006FE504A74624FF00063C6E90023EA
:102C100030464FF480624FF40033C6E90244C6E9FF
:102C20000424C6E90644336202F0CCF900286ED1D0
:102C3000AE63002204212720B56302F09BFF27200A
:102C400002F0D6FF0DB0BDE8F083384B05945A6C06
:102C50003E483F4E42F020025A645A6C02F0200275
:102C60000592059A06941A6B42F040021A631B6B98
:102C700003F0400306934FF484430793069B02231B
:102C8000089307A908230327CDE90A7302F0C0FDC2
:102C9000304A74624FF02063C6E9002330464FF497
:102CA00080624FF40033C6E90244C6E90424C6E951
:102CB0000644336202F086F978BB274C2749AE639D
:102CC0004FF02062C4E900124FF4806200234021DB
:102CD000226120464FF48032C4E90213C4E905336F
:102CE000C4E90732B563636202F06CF990B96C63B2
:102CF000002205214720A56302F03CFF472002F097
:102D000077FF0DB0BDE8F08300F0AAFB51E700F0BB
:102D1000A7FB8DE700F0A4FBE9E700F0A1FBCCE7FF
:102D200000100140004800400014014000380240FB
:102D300000040240240E002000000240B86402405B
:102D400000080240840E0020286002400018024063
:102D5000E40E002028640240440F0020A0640240DA
:102D600010B50B480B4C0C4900234FF48042C0E9CE
:102D70000041C0E90233C0E90423C0E9063303621D
:102D800001F022FC00B910BDBDE8104000F068BBA6
:102D9000D010002000540040801A060010B50B48E7
:102DA0000B4C0C4900234FF48042C0E90041C0E9BC
:102DB0000233C0E90423C0E90633036201F004FCD6
:102DC00000B910BDBDE8104000F04ABB241100203E
:102DD00000580040801A060010B50B480B4C0C49F7
:102DE00000234FF48042C0E90041C0E90233C0E94A
:102DF0000423C0E90633036201F0E6FB00B910BD0D
:102E0000BDE8104000F02CBB78110020005C0040B1
:102E1000801A06002DE9F04303685E4A8DB0002455
:102E20009342CDE90744CDE909440B9408D05A4AAE
:102E300093422CD0594A934269D00DB0BDE8F0833B
:102E4000574D00942B6B574843F002032B632B6BB9
:102E500003F0020300934FF44073079312260123FB
:102E6000CDE9086307A904230327CDE90A73009A73
:102E700002F0CEFC01942B6C43F400132B642B6CFA
:102E800003F400130193019B0DB0BDE8F083444FA0
:102E900002943B6B444E43F020033B633B6B03F0D7
:102EA00020030293032307930A930423029A0B93AC
:102EB0001222012307A905463C48CDE9082302F068
:102EC000A7FC03943B6C3A4A43F480033B643B6C9D
:102ED000F46003F4800303934FF06063C6E90023BA
:102EE0004FF480634022336130464FF40033C6E92B
:102EF0000544C6E907430399B260746202F062F8C0
:102F0000002844D16E63B5630DB0BDE8F083244D55
:102F100004942B6B274843F004032B632B6B03F0C3
:102F200004030493049B05942B6B43F001032B6370
:102F30002B6B03F00103059312264FF400734FF03F
:102F400001094FF00308042707A9059A0793CDE963
:102F50000A870896CDF8249002F05AFC4FF480734B
:102F60001548079307A9CDE90869CDF828800B9784
:102F700002F04EFC06942B6C43F400032B642B6C84
:102F800003F400030693069B0DB0BDE8F08300F048
:102F900067FAB7E70054004000580040005C00406A
:102FA000003802400004024070100020001402406B
:102FB000B8600240000802400000024030B50146FF
:102FC00089B00022182002F0D5FD182002F010FE72
:102FD0000025164B02955A6C154C42F480325A6407
:102FE0005B6C03F4803301A903A80293029B01F0F8
:102FF0003BF801F029F80F4A0F4921604300A2FB7A
:1030000003239B0C013B40F2E7322046C4E9032531
:103010006360A56001F0E2FE10B1012009B030BD8F
:10302000204601F05BFC09B030BD00BF0038024013
:10303000CC11002083DE1B4300400140034AD2F83C
:10304000883043F47003C2F88830704700ED00E028
:103050002DE9F04700248EB0CDE90944CDE90B44B9
:10306000734B00940D941A6B724EDFF8D481724F3B
:10307000DFF8D09142F002021A631A6B02F00202EA
:103080000092009A01941A6B42F040021A631A6B84
:1030900002F040020192019A02941A6B42F001027E
:1030A0001A631A6B02F001020292029A03941A6BDD
:1030B00042F008021A631A6B02F008020392039AA4
:1030C00004941A6B42F004021A631A6B02F00402B1
:1030D0000492049A05941A6B42F480721A631A6B74
:1030E00002F480720592059A06941A6B42F020024F
:1030F0001A631A6B02F020020692069A07941A6B62
:1031000042F080021A631A6B02F080020792079A5B
:1031100008941A6B42F010021A631B6B03F0100341
:103120000893304601224021089B02F091FC404662
:103130000122102102F08CFC0122384641F20101EB
:1031400002F086FC012509A980233C4809930A94D2
:103150000B9502F05DFB402309A9304609934FF41B
:10316000041ACDE90A550C9502F052FB304609A924
:103170000926CDE9096A0B9502F04AFB072309A944
:1031800048460993CDE90A4402F042FB09A94046AA
:10319000CDE909540B9502F03BFB404609A94FF0DD
:1031A000020810230993CDE90A55CDF8308002F0CA
:1031B0002FFB484609A930230993CDF828A00B9589
:1031C00002F026FB4FF4805309A938460993CDE954
:1031D0000A550C9502F01CFB09A93846CDE90955A2
:1031E000CDF830800B9502F013FB062122460846ED
:1031F00002F0C0FC062002F0FBFC2246052130460E
:1032000002F0B8FC304602F0F3FC224605210A2009
:1032100002F0B0FC0A2002F0EBFC22460521172048
:1032200002F0A8FC172002F0E3FC0EB0BDE8F08726
:103230000038024000180240000402400020024012
:103240000000024000080240044B036010B48023D9
:10325000034C0C605DF8044B136070471C14002095
:103260001C120020054B036010B44FF48073044C13
:103270000C605DF8044B1360704700BF70180020AD
:103280007014002010B5144B144C1B688EB008F05D
:1032900019F9A646BEE80F00EC46ACE80F009EE820
:1032A00007008CE807000021684606F06BF90C4B1C
:1032B00004F11C0C1860BCE80F0007AC0FC49CE8BC
:1032C000070084E80700002107A806F05BF9054B1A
:1032D00018600EB010BD00BF80000020C043010880
:1032E0001412002018120020054808B5054B036091
:1032F00000F026F900B908BDBDE8084000F0B0B8FC
:10330000C418002000080650094B02689A4200D0F9
:10331000704782B0074B002201925A6B42F0400284
:103320005A635B6B03F040030193019B02B070474B
:10333000000806500038024030B5002395B0CDE9B2
:103340000A33CDE90C33CDE90333CDE90533214907
:1033500001930793086C204A40F080500864096C80
:1033600001F08051019101990293136843F4804365
:103370001360136803F48043012202934FF48033F7
:10338000CDE9082306230224029810934FF480010C
:10339000A822072308A8CDE90E41CDE911241393F3
:1033A00000F086FB08B172B6FEE70F220346CDE9B6
:1033B00003244FF4A0554FF4805203A80521CDE912
:1033C0000535079200F08CFD08B172B6FEE715B026
:1033D00030BD00BF003802400070004008B501F069
:1033E00015F8FFF7A9FFFFF733FEFEF7D3FEFEF750
:1033F000CFFDFEF705FEFEF799FBFEF7B5FBFFF7E5
:10340000AFFCFEF75DFCFFF781F9FFF7D9F9FFF795
:1034100029FBFFF745FAFEF75FFBFFF765FFFFF7B4
:10342000BDFCFFF7D9FCFEF775FDFEF76DFCFFF75D
:103430007DF8FFF711F9FFF7B7FAFFF7F7FAFFF793
:103440002FFBFFF71FFF06F097F8FEE7034B02681C
:103450009A4200D0704700F0F3BF00BF0040014027
:1034600072B6FEE7002868D038B5437F044603F003
:10347000FF02002B5DD0236853220220CA2160770F
:1034800059625A62DA6855063CD5996862682569BE
:1034900021F4E00121F040019960616998682A43B4
:1034A0000A430243E1689A6019611A69A16842EA15
:1034B00001421A61DA6822F08002DA609A689106A5
:1034C0000DD5196CA06921F4802119641A6C02438E
:1034D0001A64FF21012259626277002038BDDA6840
:1034E00022F0A002DA6000F0B7FF054605E000F028
:1034F000B3FF401BB0F57A7F14D82368DA689206D0
:10350000F5D5DEE74FF0FF32DA6000F0A5FF0546A3
:103510002368DA685006B8D400F09EFF401BB0F56F
:103520007A7FF5D92268FF21042351626377012055
:1035300038BD0277FEF708FD9DE70120704700BF08
:10354000B0B110B54379044603F0FF0263B12168BE
:10355000022363710B68012043F0040300220B6017
:1035600060711046A26010BD0271FFF7CDFEEEE75C
:1035700001207047002800F09F8038B5056C044694
:103580003DB1236CDB060CD5002384F83C300120D0
:1035900038BDFEF76DFD6564236C84F83C50DB0696
:1035A000F2D4236C484A23F4885323F0020343F0F7
:1035B000020323645168236821F44031516051684B
:1035C0006068014351605A682569A06822F48072DE
:1035D0005A60596841EA05215960596821F04071E3
:1035E00059605A6802435A609968E06821F40061A2
:1035F00099609A68A16A02439A60344A914252D013
:103600009868E56A20F0706098609A681143996044
:10361000996821F0405199609A682A439A609A68A3
:1036200022F002029A609A68217E42EA41029A6080
:1036300094F82020002A41D05968626A41F4006160
:103640005960586820F460405860511E5A6842EA38
:1036500041325A60DA6AE169656922F47002DA621D
:10366000DA6A013942EA0152DA62996821F400719A
:103670009960996894F8302041EA422199609968EC
:1036800021F4806199609A68002042EA85229A605C
:103690006064236C23F0030343F0010323640023DD
:1036A00084F83C3038BD9A6822F070629A609A685B
:1036B00022F040529A60B2E7012070475A6822F423
:1036C00000625A60C6E700BF002301400100000FFE
:1036D00030B590F83C3083B00022012B019200F00D
:1036E0009C80012380F83C300C680368092C2DD89D
:1036F0001D698A6804EB440E4FF0070C0CFA0EFCAF
:1037000025EA0C051D611D6902FA0EF22A431A61B1
:103710004A68062AA4462FD802EB8202596B053A62
:103720004FF01F0E0CFA02FC0EFA02F221EA02021E
:103730005A635A6B4CEA02025A63394A934230D0B8
:10374000002380F83C30184603B030BD1FFA84FCDB
:103750000CEB4C02DD68A2F11E0E072202FA0EF2FB
:1037600025EA0202DA608A68DD6802FA0EF22A436C
:10377000DA604A68062ACFD90C2A02EB820236D8D0
:10378000196B233A1F250CFA02FC05FA02F221EA12
:1037900002021A631A6B4CEA02021A63204A93422D
:1037A000CED1122C32D0A4F11003012BC8D81D4A5F
:1037B0005368102C43F400035360C1D11A4B02F13B
:1037C00046721B6802F52E3202F28332A2FB0323FB
:1037D0009B0C03EB83035B000193019B002BAFD099
:1037E000019B013B0193019B002BF9D1A8E7D96A0A
:1037F000413A1F250CFA02FC05FA02F221EA020204
:10380000DA62DA6A4CEA0202DA6296E7D2F8043344
:1038100043F48003C2F8043392E7022003B030BDC2
:1038200000200140002301407C0000200268116953
:1038300038B50446C068A36821F4405101432069AB
:10384000116103436069D1680343E06921F41641C3
:1038500021F00C0103430B43D3605369A06928494D
:1038600023F4407303438A42536129D0254B9A4283
:1038700026D000F0D9FBE369B3F5004F26D162688A
:10388000214D92184FF019014FF000035B41A0FB4E
:103890000101FDF7E9F9A5FB00325109642303FB9F
:1038A0001103DB003233A5FB0323C3F342121B09D0
:1038B000246802EB011203F4F8731344A36038BDCB
:1038C00000F0C2FBE369B3F5004FD8D0636819215B
:1038D0009A00A0FB01019B0FFDF7C6F90A4AA2FB63
:1038E00000135B092168642404FB130000013230DB
:1038F000A2FB00201B0103EB5010886038BD00BF05
:1039000000100140001401401F85EB512DE9F843E0
:1039100080460F4691461E46D8F8005001E0731CC1
:1039200006D12C6837EA0403F9D10020BDE8F883FA
:103930003EB100F091FDA0EB09008642ECD2D8F830
:10394000005005F10C0353E8003F23F4D07305F158
:103950000C0141E80032002AF3D105F1140353E8C9
:10396000003F23F0010305F1140141E80032002A71
:10397000F3D1202388F83D3088F83C2088F83E3089
:103980000320D3E760B338B590F83D30044603F028
:10399000FF0203B32268242384F83D30D36823F464
:1039A00000532046D360FFF741FF23681A6922F4D1
:1039B00090421A615A6922F02A025A61DA68002597
:1039C000202142F40052DA60256484F83D1084F826
:1039D0003E10284638BD80F83C20FFF77DF8D9E737
:1039E000012070472DE9F843044690F83D00202857
:1039F00046D10D46002940D01746002A3DD01E462C
:103A000094F83C30012B3BD0012384F83C304FF03C
:103A100000092123C4F8409084F83D3000F01CFDDB
:103A2000A368A784B3F5805FE78480462BD0E38C3E
:103A300000229BB284F83C207BB92DE0236815F866
:103A4000012B5A60B4F826C00CF1FF3C1FFA8CFC25
:103A5000A4F826C0E18C89B2F1B1334642468021F8
:103A60002046FFF753FFA0B9002DE7D139F8023BFC
:103A70002268C3F308035360E4E70120BDE8F8833C
:103A80000220BDE8F8832369002BD0D1A9461D464A
:103A9000CDE70320BDE8F883334642464021204667
:103AA000FFF734FF0028F4D1202384F83D30E5E708
:103AB000002800F0A2812DE9F0410368DD0782B003
:103AC00004462FD59E498A6802F00C02042A00F0B1
:103AD000ED808A6802F00C02082A00F0E380636837
:103AE000B3F5803F00F0EC80B3F5A02F00F07581B6
:103AF000934D2A6822F480322A602A6822F48022B8
:103B00002A60002B40F0E18000F0A6FC064605E0AC
:103B100000F0A2FC801B642800F201812B689B034B
:103B2000F6D423689F0728D5854A916811F00C0FB9
:103B300000F09080916801F00C01082900F0868067
:103B4000E368002B00F00E817E4B7D4E01221A604F
:103B500000F082FC054605E000F07EFC401B0228D8
:103B600000F2DD8033689807F6D53368226923F0C8
:103B7000F80343EAC203336023681A0751D4580795
:103B80002FD56F4A136C13F080537FD000256E4EF3
:103B90003368D90540F1B380A368012B00F0C380DE
:103BA000052B00F02C81664E326F22F00102326745
:103BB000326F22F004023267002B40F0B98000F02F
:103BC0004BFC41F28838074605E000F045FCC01B7D
:103BD000404500F2A480336F9807F6D4002D40F0E2
:103BE0000681A069C8B1564DAB6803F00C03082BE1
:103BF00000F0C980534B002202281A6600F00981A8
:103C000000F02AFC044605E000F026FC001B022818
:103C100000F285802B689B01F6D4002002B0BDE83D
:103C2000F08163690BB3474B454E0122C3F8802EE8
:103C300000F012FC054604E000F00EFC401B0228D8
:103C40006DD8736F9B07F7D5236898E752685602C3
:103C50003FF576AF3A4A1268950744D5E268012AE3
:103C600041D0012002B0BDE8F081364A344EC2F89E
:103C7000803E00F0F1FB054604E000F0EDFB401B48
:103C800002284CD8736F9F07F7D4DDE70193136CBC
:103C900043F080531364136C03F080530193019B32
:103CA000012574E74A6850027FF519AF244A12686B
:103CB00091037FF537AF6268002A7FF433AFD0E716
:103CC0001F4A136843F48033136000F0C5FB1C4E99
:103CD000054604E000F0C0FB401B64281FD8336891
:103CE0009A03F7D51DE7164920690A6822F0F80201
:103CF00042EAC0020A601A077FF541AF91E73368D4
:103D000043F48073336000F0A7FB07463368DA059D
:103D10003FF542AF00F0A0FBC01B0228F6D90320FC
:103D200002B0BDE8F081064A136F43F00103136748
:103D300000F092FB024F064641F288380BE000BFCC
:103D400000380240000047420070004000F084FB51
:103D5000801B4045E3D83B6F9B07F7D5002D3FF410
:103D600040AF44E0424A434E136000F075FB054605
:103D700004E000F071FB401B0228D0D8336899079B
:103D8000F7D42368F9E601283FF448AF6B68E2698D
:103D900003F4800191427FF464AF226A03F03F0193
:103DA00091427FF45EAF616A47F6C0721A40B2EB8F
:103DB000811F7FF456AFA26A520803F44031013AE2
:103DC000B1EB024F7FF44DAFE26A03F07063B3EBE7
:103DD000026F14BF0120002020E7264B1A6842F42E
:103DE00080221A601A6842F480321A606DE7214A14
:103DF000136C23F080531364F3E6012070471D4BCE
:103E00001A6F42F004021A671A6F42F001021A6731
:103E10008EE700F021FB064605E000F01DFB801B4D
:103E200002283FF67CAF2B689901F6D4D4E907311C
:103E3000626A0B4343EA8213D4E90A21520843EA37
:103E40000163013A0A4943EA024301226B600A66B0
:103E500000F002FB074D044605E000F0FDFA001BF0
:103E600002283FF65CAF2B689A01F6D5D5E600BF75
:103E70000000474200380240164908B58B6803F03D
:103E80000C03042B1BD0082B17D14A684B684968D8
:103E900013F4800302F03F0213D10F48C1F38811DD
:103EA000A1FB0001FCF7E0FE0A4B5B68C3F3014392
:103EB00001335B00B0FBF3F008BD074808BD0748BD
:103EC00008BD0648C1F388110023A1FB0001FCF7DF
:103ED000CBFEE9E7003802400024F400001BB700E5
:103EE000002800F08780484A136803F007038B42DC
:103EF0002DE9F0410D46044609D2CBB21370136888
:103F000003F007038B4202D00120BDE8F081236853
:103F1000980714D5590704D53C498A6842F4E05201
:103F20008A601A0704D539498A6842F460428A6077
:103F30003649A0688A6822F0F00202438A60DF07EF
:103F400021D56268012A57D0931E012B2F4B1B6885
:103F50004DD99907D8D52D4EB36823F003031343E9
:103F6000B36000F079FA41F28838074604E000F0C7
:103F700073FAC01B404544D8B368626803F00C0371
:103F8000B3EB820FF3D1204A136803F00703AB426F
:103F900006D9EBB21370136803F00703AB42B3D139
:103FA00023685A0706D51949E0688A6822F4E05266
:103FB00002438A601B0707D5144A2169936823F4DA
:103FC000604343EAC1039360FFF756FF0F4A104C6A
:103FD00092681049C2F303120346A25C0E48D34014
:103FE00000680B60FEF7EAFF0020BDE8F081980151
:103FF000B1D489E701207047044B1B689E03AAD403
:1040000082E7032081E700BF003C02400038024005
:10401000284501087C00002088000020014B18681A
:10402000704700BF7C000020044B05499B68054A8F
:104030000868C3F38223D35CD8407047003802403D
:104040007C00002038450108044B05499B68054A5F
:104050000868C3F34233D35CD8407047003802404D
:104060007C000020384501080E4B0F2202609A6840
:1040700002F0030242609A6802F0F00282609A68DD
:1040800002F4E052C2609B68DB0810B403F4E05312
:10409000054C036123685DF8044B03F007030B60D4
:1040A000704700BF00380240003C024000287BD02F
:1040B00038B590F820300446002B72D0226813687F
:1040C00043F00103136000F0C7F9054604E000F077
:1040D000C3F9431B0A2B5BD823685A68D107F6D56E
:1040E0001A6822F002021A6000F0B6F9054604E0F0
:1040F00000F0B2F9401B0A284AD823685A68920790
:10410000F6D4227E012A1A680CBF42F0800222F007
:1041100080021A60627E012A1A680CBF42F04002D7
:1041200022F040021A60A27E012A1A680CBF42F0F7
:10413000200222F020021A60E27E012A1A680CBFD7
:1041400022F0100242F010021A60227F012A1A683F
:104150000CBF42F0080222F008021A60627F012AB6
:104160001A680CBF42F0040222F004021A60D4E97B
:104170000220216902430A436069616802430139F0
:104180000A4300200121DA61606284F8201038BD02
:10419000636A052243F40033636284F8202001201F
:1041A00038BDFDF7FFFC89E701207047704700BF6D
:1041B000704700BF704700BF704700BF704700BF27
:1041C000704700BF704700BF704700BF704700BF17
:1041D000704700BF704700BF704700BF704700BF07
:1041E0002DE9F84F03685C69D3F804809F68D3F821
:1041F0000CB0D3F810A0D3F8189014F001060546BF
:1042000020D017F001060DD001229A60BB0700F103
:10421000C4807E0700F1E38017F0080600F0E88014
:104220004FF48056F8050BD52B684FF48072B90512
:104230009A6000F1AE807A0540F1CC8046F40056D9
:10424000F80365D4270702D51BF0100F6BD1600768
:1042500003D51BF0080F40F08D80A10704D52B6813
:10426000DB689A0740F08280630602D51AF0100FCF
:1042700048D1A70602D51AF0080F62D1E00603D58F
:104280002B681B6999077CD1A20302D518F0100F87
:104290005ED1E30302D518F0080F60D1270405D5DD
:1042A00018F0040F06D12B6804225A60002E40D16A
:1042B000BDE8F88FE00504D519F0010F18BF46F0EE
:1042C0000106A10504D519F0020F18BF46F0020639
:1042D000620504D519F0040F18BF46F00406230543
:1042E000E1D519F07009DED0B9F1400F00F08B80F4
:1042F00057D8B9F1200F78D0B9F1300F5FD146F01F
:10430000200656E02B68102246F480661A61B0E75A
:104310002B684FF48032B9039A6036D47A0354D5AF
:1043200046F400468EE72B68102246F40076DA60E9
:104330008DE76B6A1E4328466E62FFF74FFFBDE8AC
:10434000F88F2B6808221A612846FFF741FF95E78E
:104350002B6810225A602846FFF73CFF99E72B682C
:1043600008225A602846FFF737FF97E72846FFF7ED
:1043700029FF79E72B680822DA602846FFF724FF37
:104380006BE72846FFF722FF7EE72846FFF712FF7C
:1043900058E72846FFF70CFF52E7FFF707FF002614
:1043A00040E7B9F1500F1DD0B9F1600F08BF46F4D6
:1043B00080762B689A6922F070029A6174E7B9F1ED
:1043C000100FF6D146F00806F3E73B0317D546F485
:1043D000803637E73B050ED546F4804630E74FF48C
:1043E00000661FE746F08006E3E746F01006E0E7C8
:1043F000FFF7E2FE16E72846FFF7E0FE20E7284633
:10440000FFF7DEFE1EE746F04006D2E708B50B4B8D
:104410001A6842F400721A601A6842F480621A60E4
:104420001A6842F480721A60032001F091FB0F2099
:10443000FEF7C4FDFDF74EFD002008BD003C024024
:10444000034A044B11681B780B441360704700BF8C
:10445000D418002084000020014B1868704700BF6A
:10446000D418002038B50446FFF7F6FF631C054654
:1044700002D0044B1B781C44FFF7EEFF431BA34202
:10448000FAD338BD84000020F0B5036813F0050F9F
:1044900083B0044605D113F002033BD1184603B0A4
:1044A000F0BD464B464E00229A66FFF7D5FF054603
:1044B00004E0FFF7D1FF431B022B28D833681F010C
:1044C000F7D4D4E901131B0743EA81133B4AC6F82A
:1044D000843001239366FFF7BFFF394E054604E0A1
:1044E000FFF7BAFF401B022811D833681801F7D52F
:1044F0002368D0E7FFF7B0FF41F2883706462B6FFD
:104500009B073CD4FFF7A8FF801BB842F7D90320D4
:1045100003B0F0BD2A4B2B4D002201921A6C42F0E1
:1045200080521A641B6C03F080530193019B2B682B
:1045300043F480732B60FFF78FFF064604E0FFF71C
:104540008BFF831B022BE2D82B68D905F7D51C4DB6
:10455000E3682A6F12F4407212D003F44071914262
:1045600010D02B6F154A0121C2F8401E23F440736E
:104570000021C2F8401E2B672B6FDA07BAD4E3681C
:1045800003F44072B2F5407F0DD00D498A6822F4E1
:10459000F8128A600A4A116FC3F30B0300200B4321
:1045A000136703B0F0BD0648826823F0704121F420
:1045B000407122F4F8120A438260EBE700004742A0
:1045C0000038024000700040002800F0B98070B54B
:1045D00090F83D30044603F0FF02002B00F0988075
:1045E0002368242284F83D201A6822F001021A6010
:1045F0001A6842F400421A601A6822F400421A60F3
:10460000FFF712FD63684F498B424FD84E4A9042E4
:104610007CD94E4D5A00A5FB0035431EB3FBF2F387
:104620002268506820F03F0040EA95405060A90C95
:1046300001F1010C116A21F03F0141EA0C01116204
:10464000D16940F6FC7E013321F44F4113EA0E0F8D
:1046500021F0FF0161D104230B43D361D4E907307A
:104660001168034321F0C0010B4313609168D4E942
:10467000030321F40341034321F0FF010B43936043
:10468000D4E90530D168034321F0FF010B43D36027
:104690001168002341F0010120201160236484F897
:1046A0003D00236384F83E30184670BD284A90428E
:1046B0002CD9264D274EA5FB002C2268556825F0E5
:1046C0003F0545EA9C4555604FEA9C414FF496757D
:1046D00005FB01F1A6FB0151156A890925F03F058B
:1046E000013129431162D169A56821F44F4121F0BC
:1046F000FF01ADB9013803EB4303B0FBF3F3013322
:10470000C3F30B03D3B143F40043A5E7012070BD0D
:1047100080F83C20FEF77EFB62E7C3F30B039BE7C8
:1047200003EB8303013803EB8303B0FBF3F30133A3
:10473000C3F30B0313B143F440438DE701238BE72D
:1047400001207047A08601007F841E0083DE1B438A
:10475000FF083D00D34D6210036A23F0010303629A
:10476000036A70B4446882690D6822F073022A43B8
:104770008D6823F002032B430E4DA8420AD005F5A5
:104780008065A84206D049684460826170BC41637C
:1047900003627047CD6823F008032B43D1E9056518
:1047A00024F4407446EA050C23F004034CEA0404A4
:1047B000E9E700BF00000140036A23F4807303624D
:1047C000036A70B44468C2690D6822F073022A4318
:1047D0008D6823F4007343EA05230F4DA8420AD0E5
:1047E00005F58065A84206D049684460C26170BC86
:1047F000C16303627047CD6823F4006343EA052375
:10480000D1E9056524F4405446EA050C23F480639D
:1048100044EA0C14E8E700BF00000140036A23F4F7
:1048200080530362036A30B44468C2690D6822F49D
:10483000E64242EA05228D6823F4005343EA053339
:10484000094DA8420AD005F58065A84206D04968FE
:104850004460C26130BC0164036270474D6924F456
:10486000804444EA8514F2E70000014090F83D30AE
:10487000012B2CD10368184A0221934280F83D1085
:104880001AD0B3F1804F17D0A2F57C42934213D0D7
:1048900002F5806293420FD002F5806293420BD002
:1048A00002F57842934207D002F57052934203D04A
:1048B000A2F59432934204D19A6802F00702062AC4
:1048C00007D01A6842F0010200201A6070470120E8
:1048D00070470020704700BF0000014090F83D3055
:1048E000012B2FD103681949022280F83D20DA6894
:1048F0008B4242F00102DA6019D0B3F1804F16D03A
:10490000134A934213D002F5806293420FD002F50E
:10491000806293420BD002F57842934207D002F5B1
:104920007052934203D0A2F59432934204D19A6814
:1049300002F00702062A07D01A6842F0010200209E
:104940001A60704701207047002070470000014046
:104950000004004000293DD190F83E30012B41D1A8
:10496000022380F83E3003680122186A01F01F011B
:1049700002FA01F120EA01001862186A2C4A014388
:104980009342196238D002F58062934234D0B3F179
:10499000804F14D027498B4211D001F580618B42A2
:1049A0000DD001F580618B4209D0934207D002F50A
:1049B0007052934203D0A2F59432934204D19A6884
:1049C00002F00702062A20D01A6842F001020020F5
:1049D0001A607047042922D0082918D090F8413075
:1049E000012B01D00120704704291CD0082912D0C6
:1049F000022380F84130B6E75A6C42F400425A6410
:104A00009A6802F00702062ADED10020704790F86B
:104A10004030012BE6D1022380F84030A3E790F824
:104A20003F30012BDED1022380F83F309BE700BFEF
:104A30000000014000040040704700BFFFF78ABF3C
:104A400090F83C30012B75D0024630B40223046844
:104A500082F83D30012082F83C00A36823F47F43B4
:104A600023F07703A3600B68602B65D024D8402B1C
:104A70007CD04BD9502B17D14868CD68216A236A66
:104A800023F001032362A36921F00A0123F0F0035C
:104A9000014343EA0513A3612162A36823F0700375
:104AA00043F057030020A3600121002382F83D104A
:104AB00082F83C3030BC7047B3F5805F38D0B3F536
:104AC000005F10D1D1E90153A0682B43CD6820F4D9
:104AD0007F4143EA05230B43A360A36843F480436B
:104AE0000020A360E0E7702BDED1D1E90153A0687C
:104AF0002B43CD6820F47F4143EA05230B43A36099
:104B0000A36843F077030020A360CDE7202B02D0F9
:104B10000AD9302BC8D1A16821F070010B4343F0B2
:104B200007030020A360BFE733F01001BCD1F2E718
:104B30000020B9E702207047206ACB684D6820F05A
:104B400010002062A16921F4704141EA0331236A17
:104B5000A16123F0A00343EA05132362A36823F0B5
:104B6000700343F067030020A3609DE74868CD68A9
:104B7000216A236A23F001032362A36921F00A0159
:104B800023F0F003014343EA0513A3612162A36804
:104B900023F0700343F047030020A36084E700BFC5
:104BA000704700BF704700BF704700BF704700BF2D
:104BB00003681A69910710B5044602D5DA689207AE
:104BC0005FD41A69500702D5DA68510746D41A69CA
:104BD000120702D5DA6810072ED41A69D20602D558
:104BE000DA68D00618D41A69D10702D5DA68D20774
:104BF0005DD41A69100602D5DA6811065FD41A6905
:104C0000520602D5DA68500661D41A69910602D5B7
:104C1000DA68920643D410BD6FF0100108221961C2
:104C20002277DB6913F4407F204664D0FFF7BAFF98
:104C3000002223682277D6E76FF008010422196169
:104C40002277DB699907204652D1FFF7A9FF20465A
:104C5000FFF7AAFF002223682277BEE76FF0040166
:104C60000222196122779B6913F4407F20463CD1D0
:104C7000FFF796FF2046FFF797FF00222368227771
:104C8000A5E76FF002010122196102779B699B077A
:104C900025D0FFF787FF00222368227791E76FF086
:104CA000200220461A61BDE8104000F04DBF6FF0B1
:104CB00001021A612046FEF7C9FB236899E76FF0ED
:104CC00080021A61204600F041FF236897E76FF0E9
:104CD00040021A612046FFF769FF236895E7FFF756
:104CE0005FFF2046FFF760FFD5E7FFF75BFFC4E7F4
:104CF000FFF758FFAEE7FFF753FF2046FFF754FFDB
:104D000096E700BF344A0368904230B44CD0B0F10B
:104D1000804F34D0A2F57C42904230D002F58062C0
:104D200090422CD002F58062904228D002F5784261
:104D3000904239D002F57052904224D002F5806240
:104D4000904220D002F5806290421CD0A2F59832A9
:104D5000904218D002F58062904214D002F5806231
:104D6000904210D04D698C680A6823F080032B4371
:104D700003600123C462826230BC436170474A68A9
:104D800023F070031343CC684A6923F44073234330
:104D900023F0800313438C680A6803600123C46214
:104DA000826230BC436170474C68CA6823F070036C
:104DB000234323F4407313434A6923F080031343CE
:104DC00003608B68C3620B6883620B690363012312
:104DD00030BC4361704700BF0000014050B310B5C4
:104DE00090F83D30044603F0FF02F3B12146022360
:104DF00084F83D3051F8040BFFF784FF012384F859
:104E0000463084F83E3084F83F3084F8403084F8EF
:104E1000413084F8423084F8433084F8443084F8D8
:104E2000453084F83D30002010BD80F83C20FDF76F
:104E300005FADBE70120704750B310B590F83D301C
:104E4000044603F0FF02F3B12146022384F83D300B
:104E500051F8040BFFF756FF012384F8463084F81D
:104E60003E3084F83F3084F8403084F8413084F894
:104E7000423084F8433084F8443084F8453084F874
:104E80003D30002010BD80F83C20FFF7D5FDDBE76A
:104E900001207047036A23F010030362036A70B4B1
:104EA000446882690D6822F4E64242EA05228D6870
:104EB00023F0200343EA05130E4DA8420AD005F55E
:104EC0008065A84206D049684460826170BC8163F5
:104ED00003627047CD6823F0800343EA0513D1E9EC
:104EE000056524F4406446EA050C23F0400344EAD7
:104EF0008C04E8E70000014038B590F83C30012B05
:104F00005ED0012304460D4680F83C300C2A08D8B8
:104F1000DFE802F01F070707310707074407070705
:104F20000C000120002384F83C3038BD0068FFF7F6
:104F300075FC23682869D96941F40061D961D96990
:104F400021F48061D961DA6942EA0022DA61002045
:104F5000E8E70068FFF700FC23682869996941F0D9
:104F600008019961996921F0040199619A690243E4
:104F70009A610020D6E70068FFF78CFF2368286954
:104F8000996941F400619961996921F4806199619D
:104F90009A6942EA00229A610020C3E70068FFF79D
:104FA0000BFC23682869D96941F00801D961D969E6
:104FB00021F00401D961DA690243DA610020B1E726
:104FC000022038BD38B50446FFF746FA002C67D0FA
:104FD00023680022022184F8351084F834201A68EE
:104FE00022F0010205461A6005E0FFF735FA431B7F
:104FF000052B39D823681A68D107F6D4D4E90120E3
:10500000E16802430A43D4E90451A0692A430A43F0
:10501000E1691D6802430A4333492940256A2A434E
:105020000A43616A042926D01A605A6922F00702ED
:105030001143D8B22D4A59611038A2FB005212090F
:105040002B4923F47F73895CE16523F003035F2818
:1050500088BF04333F228A40A36500209A60012361
:10506000606584F8353038BD03232022626584F8FA
:105070003530184638BDD4E90B5129430A431A602C
:105080005969A26A21F00701114341F00401002D82
:10509000CFD038B9012A23D032F00202C9D108E0BA
:1050A000012038BDB0F5005F0CD0022A03D9032AD5
:1050B000BFD1EA01BDD501234022626584F83530B5
:1050C000184638BD032AB4D801A050F822F000BF1A
:1050D000B7500008B3500008B7500008E15000086E
:1050E000B5F1C07FA5D1E6E73F8010F0ABAAAAAA30
:1050F0004C4501082DE9F04182B0744A866D15686F
:1051000000230193C36D346808229A4022428046EE
:1051100004D001680F68780700F18A8001229A4064
:10512000224204D0D8F800104969090678D4042234
:105130009A40224204D0D8F8001009688F0767D43B
:1051400010229A40224204D0D8F800100F68380785
:1051500049D420229A40224217D0D8F800100C6877
:10516000E00612D5B26098F83520052A73D00B6896
:1051700013F4802F0B6800F09080190340F19B809E
:10518000D8F83C300BB140469847D8F854303BB380
:10519000D8F85430DA071BD5D8F800204C4905233D
:1051A00088F835301368A1FB051523F00103AD0A1B
:1051B000136002E01368DB0704D5019B0133AB42A7
:1051C0000193F7D90122002388F8352088F834307C
:1051D000D8F84C3023B1404602B0BDE8F041184742
:1051E00002B0BDE8F081B2600A6812F4802F0A684C
:1051F0002AD1D70503D40A6822F008020A60D8F839
:105200004020002AA5D040469047D8F85C30A0E75F
:10521000B260D8F8542042F00402C8F854208FE756
:10522000B260D8F8542042F00202C8F854207EE759
:105230000F6827F004070F60B260D8F8542042F0DE
:105240000102C8F8542069E71203D8D5D8F84820DD
:10525000002AD8D17DE70A6822F016020A604A695E
:1052600022F080024A61D8F8402052B30A6822F046
:1052700008020A603F2202FA03F3D8F85010B36024
:105280000122002388F8352088F834300029A7D07F
:10529000404602B0BDE8F041084713F480737FF444
:1052A0006FAF0A6822F010020A60012288F83520E8
:1052B00088F8343064E7D8F84430002B7FF463AFCB
:1052C00063E7D8F84820002AD0D1D3E77C0000203B
:1052D000B5814E1B2DE9F04182B01E4614460D46A5
:1052E0000746FFF7B9F82644361AFFF7B5F8264BFC
:1052F0001B68C3F3CB3306FB03F3804601933A6884
:1053000001E0631C07D1936835EA0303F9D000205C
:1053100002B0BDE8F081FFF79FF8A0EB0800B042B3
:1053200008D2019B002B019B03F1FF3308BF00262D
:105330000193E4E7D7E900315A68B1F5827F22F0A2
:10534000E0025A6014D0BA6AB2F5005F07D00122B9
:10535000002387F8512087F850300320D8E71A68D7
:1053600022F400521A601A6842F400521A60EEE702
:10537000BA68B2F5004F02D0B2F5806FE3D11A6877
:1053800022F040021A60DEE77C00002030B5164BA8
:10539000164C1B68A4FB033C436883B04FEA5C5C7B
:1053A0004FF47A7505FB0CF5B3F5827F0446019541
:1053B00007D10CE0019B2268013B019393681B0617
:1053C00002D5019B002BF5D1002003B030BD134660
:1053D0000A468021FFF77EFF0028F5D0636D43F079
:1053E000200303206365F0E77C000020819F5E16A8
:1053F00000285CD0416A70B50446002947D00023DC
:10540000C0E9043394F851200023A36202F0FF00A6
:10541000002A42D09C462568A268022384F85130B5
:105420002B6823F040032B60636802F4044203F40A
:1054300082731343E26802F400621343226902F0AC
:1054400002021343626902F001021A43E36901F0A8
:10545000100003F03806A169236A03F0800E01F4FE
:10546000007313433343090C43EA0E0301F00401B4
:1054700043EA0C0301432B606960EB69002023F4CD
:1054800000630122EB61606584F8512070BD4368C0
:10549000B3F5827FB6D0C161B4E784F850002046EE
:1054A000FCF756FCD4E9091303F4005CB3E70120D0
:1054B000704700BF2DE9F043044690F8500083B0D8
:1054C00001280A9D00F083801F46012384F8503094
:1054D00089469046FEF7C0FF064694F8510063687F
:1054E0000128C1B211D0B3F5827F09D00220012278
:1054F000002384F8512084F8503003B0BDE8F083D5
:10550000A268002AF2D10429F0D1B9F1000F62D0CB
:10551000B8F1000F5FD0002F5DD094F85120C4F88F
:105520003880042A1CBF052284F8512000226265BD
:10553000C4E910222268E787E7861168A787490631
:10554000C4F83090A78603D4116841F0400111607F
:10555000E168B1F5006F61D0002B3ED0012F3CD047
:105560000127E38E9BB21BB9E38F9BB2002B42D085
:105570002268936899070FD5E38E9BB263B15FB140
:10558000236B1B781373E38E226B013B01329BB2BA
:1055900022632268E3860027936813F001030DD08D
:1055A000E18F89B251B11F46A36BD2681A70A36B09
:1055B0000133A363E38F013B9BB2E387FEF74CFF0C
:1055C000801BA84214D36B1CCBD003208FE7022092
:1055D00003B0BDE8F083012089E799F80030137328
:1055E000E38E226B013B01329BB22263E386B7E775
:1055F000002DB6D1E9E7324629462046FFF7C6FE20
:1056000000284CD1A368002B7FF471AF2368019070
:10561000DA6801929B680193019B68E7002B3BD1FC
:10562000494631F8023BD360E38E2163013B9BB2D4
:10563000E3860127E38E9BB21BB9E38F9BB2002B5D
:10564000D9D0226893689B070DD5E38E9BB253B1E6
:105650004FB1236B33F8021BD1602363E38E013B10
:105660009BB20027E386936813F001030CD0E18F0F
:1056700089B249B11F46A36BD26823F8022BA363FA
:10568000E38F013B9BB2E387FEF7E6FE801BA84257
:10569000D0D3681CCED098E7012FCAD1C0E7202311
:1056A0006365012023E700BF39B101291CD002291D
:1056B0000CBF4FF400714FF440710D4B1A6922F486
:1056C00040721A611A69114319611A6922F0F802CD
:1056D0001A611A6942EAC00040F0020018611A69B2
:1056E00042F480321A6170474FF48071E5E700BFE1
:1056F000003C0240144B1A6891050FD51A6822F439
:1057000000721A601A6842F400621A601A6822F481
:1057100000621A601A6842F400721A600A4B1A6832
:1057200052050FD51A6822F480621A601A6842F492
:1057300080521A601A6822F480521A601A6842F481
:1057400080621A60704700BF003C02402DE9F843B8
:105750002D4F3B7E012B38D0012304464CF25030B4
:1057600088463B7601F078FA064648BB4FF0FF3397
:10577000C8F800302368012B2BD0D4E902532B4406
:10578000AB421BD9DFF8849005E0D4E90223013550
:105790001344AB4212D9217C2846FFF785FF4CF217
:1057A000503001F059FAD9F8103023F0FA03C9F853
:1057B00010300028E9D0C8F800500646FFF79AFFDD
:1057C00000233B763046BDE8F88302263046BDE82C
:1057D000F8830E4D23692A6922F440722A612A69EE
:1057E00042F004022A612A691B029BB2134343F46C
:1057F00080332B614CF2503001F02EFA2B6923F0EC
:10580000040306462B61D9E7D8180020003C02406B
:105810002DE9F04F00220C68DFF82CA2834E85B0F2
:105820001346894605E00133102B02F1020200F015
:1058300089800121994001EA040BA143F3D1D9F8F1
:1058400004C00CF003014D1E012D7ED9032940F048
:10585000BE809140CD4307683D4029431CF4403F42
:105860000160E0D000210391DAF8441041F4804156
:10587000CAF84410DAF8441001F480410391039906
:1058800023F0030101F1804101F59C3103F003078E
:10589000D1F808E0BF000F25BD402EEA0508644D91
:1058A000A84224D005F58065A84200F09480614D9F
:1058B000A84200F09780604DA84200F09A805F4DAA
:1058C000A84200F09D805E4DA84200F0A0805D4D92
:1058D000A84200F0A380DFF874E170450CBF4FF0E0
:1058E000070E4FF0080E0EFA07F748EA0708C1F84E
:1058F000088031686FEA0B071CF4803F0CBF394009
:105900004BEA0101316075681CF4003F0CBF3D405B
:105910004BEA05057560B5681CF4801F0CBF3D405F
:105920004BEA0505B560F1681CF4001F03F10103A3
:105930000CBF39404BEA0101102BF16002F1020269
:105940007FF477AF05B0BDE8F08FD9F80C508768C9
:1059500005FA02F8032505FA02FE27EA0E0748EACF
:105960000707876047686FEA0E0527EA0B0ECCF33E
:1059700000179F4047EA0E074760C76807EA050E11
:10598000D9F80870974047EA0E070229C76001FA64
:1059900002F17FF460AF4FEAD30E00EB8E0E03F0FE
:1059A0000708DEF820700097D9F810704FEA8808D1
:1059B00007FA08F701970F2707FA08F8009F27EA68
:1059C0000808019F47EA0807CEF8207043E703253F
:1059D0009540ED43D1E74FF0010E0EFA07F748EA84
:1059E000070884E74FF0020E0EFA07F748EA0708A7
:1059F0007DE74FF0030E0EFA07F748EA070876E74F
:105A00004FF0040E0EFA07F748EA07086FE74FF069
:105A1000050E0EFA07F748EA070868E74FF0060E8A
:105A20000EFA07F748EA070861E700BF003C0140AB
:105A30000000024000080240000C0240001002403A
:105A4000001402400018024000380240001C0240CE
:105A500002B9090481617047704700BF044A516967
:105A6000014200D1704708B55061FFF7F5FF08BD4E
:105A7000003C014090F83C30012B37D003680222F3
:105A800030B480F83D205A680D689C6822F070029E
:105A90002A435A60164A93421AD0B3F1804F17D066
:105AA000A2F57C42934213D002F5806293420FD05C
:105AB00002F5806293420BD002F57842934207D000
:105AC00002F57052934203D0A2F59432934204D16E
:105AD0004A6824F0800414439C600023012280F86B
